{
  "contractName": "TodoContract",
  "abi": [
    {
      "anonymous": false,
      "inputs": [
        {
          "indexed": false,
          "internalType": "string",
          "name": "task",
          "type": "string"
        },
        {
          "indexed": false,
          "internalType": "uint256",
          "name": "taskNumber",
          "type": "uint256"
        }
      ],
      "name": "TaskCreated",
      "type": "event"
    },
    {
      "anonymous": false,
      "inputs": [
        {
          "indexed": false,
          "internalType": "uint256",
          "name": "taskNumber",
          "type": "uint256"
        }
      ],
      "name": "TaskDeleted",
      "type": "event"
    },
    {
      "anonymous": false,
      "inputs": [
        {
          "indexed": false,
          "internalType": "string",
          "name": "task",
          "type": "string"
        },
        {
          "indexed": false,
          "internalType": "uint256",
          "name": "taskId",
          "type": "uint256"
        },
        {
          "indexed": false,
          "internalType": "bool",
          "name": "isComplete",
          "type": "bool"
        }
      ],
      "name": "TaskIsCompleteToggle",
      "type": "event"
    },
    {
      "anonymous": false,
      "inputs": [
        {
          "indexed": false,
          "internalType": "string",
          "name": "task",
          "type": "string"
        },
        {
          "indexed": false,
          "internalType": "uint256",
          "name": "taskId",
          "type": "uint256"
        }
      ],
      "name": "TaskUpdated",
      "type": "event"
    },
    {
      "constant": true,
      "inputs": [],
      "name": "taskCount",
      "outputs": [
        {
          "internalType": "uint256",
          "name": "",
          "type": "uint256"
        }
      ],
      "payable": false,
      "stateMutability": "view",
      "type": "function"
    },
    {
      "constant": true,
      "inputs": [
        {
          "internalType": "uint256",
          "name": "",
          "type": "uint256"
        }
      ],
      "name": "todos",
      "outputs": [
        {
          "internalType": "uint256",
          "name": "index",
          "type": "uint256"
        },
        {
          "internalType": "string",
          "name": "taskName",
          "type": "string"
        },
        {
          "internalType": "bool",
          "name": "isComplete",
          "type": "bool"
        }
      ],
      "payable": false,
      "stateMutability": "view",
      "type": "function"
    },
    {
      "constant": false,
      "inputs": [
        {
          "internalType": "string",
          "name": "_taskName",
          "type": "string"
        }
      ],
      "name": "createTask",
      "outputs": [],
      "payable": false,
      "stateMutability": "nonpayable",
      "type": "function"
    },
    {
      "constant": false,
      "inputs": [
        {
          "internalType": "uint256",
          "name": "_taskId",
          "type": "uint256"
        },
        {
          "internalType": "string",
          "name": "_taskName",
          "type": "string"
        }
      ],
      "name": "updateTask",
      "outputs": [],
      "payable": false,
      "stateMutability": "nonpayable",
      "type": "function"
    },
    {
      "constant": false,
      "inputs": [
        {
          "internalType": "uint256",
          "name": "_taskId",
          "type": "uint256"
        }
      ],
      "name": "toggleComplete",
      "outputs": [],
      "payable": false,
      "stateMutability": "nonpayable",
      "type": "function"
    },
    {
      "constant": false,
      "inputs": [
        {
          "internalType": "uint256",
          "name": "_taskId",
          "type": "uint256"
        }
      ],
      "name": "deleteTask",
      "outputs": [],
      "payable": false,
      "stateMutability": "nonpayable",
      "type": "function"
    }
  ],
  "bytecode": "0x60806040526000805534801561001457600080fd5b50610b2d806100246000396000f3fe608060405234801561001057600080fd5b50600436106100625760003560e01c80630951e5bd14610067578063111002aa14610095578063560f31921461015057806386533f6c1461017e578063b6cb58a514610243578063bc8bc2b414610261575b600080fd5b6100936004803603602081101561007d57600080fd5b810190808035906020019092919050505061031a565b005b61014e600480360360208110156100ab57600080fd5b81019080803590602001906401000000008111156100c857600080fd5b8201836020820111156100da57600080fd5b803590602001918460018302840111640100000000831117156100fc57600080fd5b91908080601f016020809104026020016040519081016040528093929190818152602001838380828437600081840152601f19601f820116905080830192505050505050509192919290505050610549565b005b61017c6004803603602081101561016657600080fd5b8101908080359060200190929190505050610681565b005b6102416004803603604081101561019457600080fd5b8101908080359060200190929190803590602001906401000000008111156101bb57600080fd5b8201836020820111156101cd57600080fd5b803590602001918460018302840111640100000000831117156101ef57600080fd5b91908080601f016020809104026020016040519081016040528093929190818152602001838380828437600081840152601f19601f8201169050808301925050505050505091929192905050506106fd565b005b61024b610913565b6040518082815260200191505060405180910390f35b61028d6004803603602081101561027757600080fd5b8101908080359060200190929190505050610919565b604051808481526020018060200183151515158152602001828103825284818151815260200191508051906020019080838360005b838110156102dd5780820151818401526020810190506102c2565b50505050905090810190601f16801561030a5780820380516001836020036101000a031916815260200191505b5094505050505060405180910390f35b6103226109e8565b6001600083815260200190815260200160002060405180606001604052908160008201548152602001600182018054600181600116156101000203166002900480601f0160208091040260200160405190810160405280929190818152602001828054600181600116156101000203166002900480156103e35780601f106103b8576101008083540402835291602001916103e3565b820191906000526020600020905b8154815290600101906020018083116103c657829003601f168201915b505050505081526020016002820160009054906101000a900460ff1615151515815250509050604051806060016040528083815260200182602001518152602001826040015115151581525060016000848152602001908152602001600020600082015181600001556020820151816001019080519060200190610468929190610a0b565b5060408201518160020160006101000a81548160ff0219169083151502179055509050507fcda8892c850dc31d09acc66cd1d02ab2f7f3976bd269e43b56de31fb327404b0816020015183836040015115604051808060200184815260200183151515158152602001828103825285818151815260200191508051906020019080838360005b838110156105095780820151818401526020810190506104ee565b50505050905090810190601f1680156105365780820380516001836020036101000a031916815260200191505b5094505050505060405180910390a15050565b6040518060600160405280600054815260200182815260200160001515815250600160008060008154809291906001019190505581526020019081526020016000206000820151816000015560208201518160010190805190602001906105b1929190610a0b565b5060408201518160020160006101000a81548160ff0219169083151502179055509050507fed1d390c812a65783a09786b88b832ef75bb16882fbc56eeea9bf61a4c1a8ac7816001600054036040518080602001838152602001828103825284818151815260200191508051906020019080838360005b83811015610643578082015181840152602081019050610628565b50505050905090810190601f1680156106705780820380516001836020036101000a031916815260200191505b50935050505060405180910390a150565b600160008281526020019081526020016000206000808201600090556001820160006106ad9190610a8b565b6002820160006101000a81549060ff021916905550507fd078b251d950cc55c44340be1db732337ef4939a76e1367ee271ad2cb19c46af816040518082815260200191505060405180910390a150565b6107056109e8565b6001600084815260200190815260200160002060405180606001604052908160008201548152602001600182018054600181600116156101000203166002900480601f0160208091040260200160405190810160405280929190818152602001828054600181600116156101000203166002900480156107c65780601f1061079b576101008083540402835291602001916107c6565b820191906000526020600020905b8154815290600101906020018083116107a957829003601f168201915b505050505081526020016002820160009054906101000a900460ff161515151581525050905060405180606001604052808481526020018381526020018260400151151581525060016000858152602001908152602001600020600082015181600001556020820151816001019080519060200190610846929190610a0b565b5060408201518160020160006101000a81548160ff0219169083151502179055509050507fa19b2211615873e8fbe860460ba43e467bf8f2d28d98b023144fc0739af842cd82846040518080602001838152602001828103825284818151815260200191508051906020019080838360005b838110156108d35780820151818401526020810190506108b8565b50505050905090810190601f1680156109005780820380516001836020036101000a031916815260200191505b50935050505060405180910390a1505050565b60005481565b6001602052806000526040600020600091509050806000015490806001018054600181600116156101000203166002900480601f0160208091040260200160405190810160405280929190818152602001828054600181600116156101000203166002900480156109cb5780601f106109a0576101008083540402835291602001916109cb565b820191906000526020600020905b8154815290600101906020018083116109ae57829003601f168201915b5050505050908060020160009054906101000a900460ff16905083565b604051806060016040528060008152602001606081526020016000151581525090565b828054600181600116156101000203166002900490600052602060002090601f016020900481019282601f10610a4c57805160ff1916838001178555610a7a565b82800160010185558215610a7a579182015b82811115610a79578251825591602001919060010190610a5e565b5b509050610a879190610ad3565b5090565b50805460018160011615610100020316600290046000825580601f10610ab15750610ad0565b601f016020900490600052602060002090810190610acf9190610ad3565b5b50565b610af591905b80821115610af1576000816000905550600101610ad9565b5090565b9056fea265627a7a723158207a2d6580a9803b7901994b2a0e020416ebb63812d6276948a39d53e0b9d91a7064736f6c63430005100032",
  "source": "// SPDX-License-Identifier: GPL-3.0\npragma solidity >=0.4.22 <0.9.0;\n\ncontract TodoContract {\n    uint256 public taskCount = 0;\n\n    struct Task {\n        uint256 index;\n        string taskName;\n        bool isComplete;\n    }\n\n    mapping(uint256 => Task) public todos;\n    event TaskCreated(string task, uint256 taskNumber);\n    event TaskUpdated(string task, uint256 taskId);\n    event TaskIsCompleteToggle(string task, uint256 taskId, bool isComplete);\n    event TaskDeleted(uint256 taskNumber);\n\n    function createTask(string memory _taskName) public {\n        todos[taskCount++] = Task(taskCount, _taskName, false);\n\n        // emit event\n        emit TaskCreated(_taskName, taskCount - 1);\n    }\n\n    function updateTask(uint256 _taskId, string memory _taskName) public {\n        Task memory currTask = todos[_taskId];\n        todos[_taskId] = Task(_taskId, _taskName, currTask.isComplete);\n\n        // emit event\n        emit TaskUpdated(_taskName, _taskId);\n    }\n\n    function toggleComplete(uint256 _taskId) public {\n        Task memory currTask = todos[_taskId];\n        todos[_taskId] = Task(_taskId, currTask.taskName, !currTask.isComplete);\n\n        // emit event\n        emit TaskIsCompleteToggle(\n            currTask.taskName,\n            _taskId,\n            !currTask.isComplete\n        );\n    }\n\n    function deleteTask(uint256 _taskId) public {\n        delete todos[_taskId];\n\n        // emit event\n        emit TaskDeleted(_taskId);\n    }\n}\n",
  "sourcePath": "/Users/viralsangani/Desktop/Projects/Flutter/dapps/todolist_dapp/smartcontract/contracts/TodoContract.sol",
  "compiler": {
    "name": "solc",
    "version": "0.5.16+commit.9c3226ce.Emscripten.clang"
  },
  "schemaVersion": "3.4.1",
  "updatedAt": "2021-09-19T06:38:57.047Z",
  "networkType": "ethereum",
  "devdoc": {
    "methods": {}
  },
  "userdoc": {
    "methods": {}
  }
}